:060000000A128A110C280F
:10000800FE00030EFA000A08FB000A128A15952A58
:100018000A128A110F28F001F101F201F301F4012B
:10002800F50183160313BF01C001C101C201C30159
:10003800C401C501C601C701C801C901CA01CB0174
:10004800CC0183010A128A11582E831203134B081C
:100058008039D5004B08D0005007DB00CA1F35286F
:10006800362837285B145B0803193B283C284B28A3
:100078005B0A031D4028412849280030CB00003086
:10008800CA000030C9000030C800CA175328003021
:10009800CB000030CA000030C9000030C8004F084B
:1000A8008039D0005008D5064F08D0005007D60038
:1000B800CE1F5F2860286128561456080319652842
:1000C80066287528560A031D6A286B28732800308D
:1000D800CF000030CE000030CD000030CC00CE176D
:1000E8007D280030CF000030CE000030CD00003039
:1000F800CC00560803198128822887285B08031D2D
:100108008628872890280030CB000030CA000030AD
:10011800C9000030C8006D2B4808A0004E080A1618
:100128008A11D7270A128A11831203132108E100C2
:100138002008E0006008D000D101D201D3015308A3
:10014800DA005208D9005108D8005008D7006108D1
:10015800D000D101D201D3015308DF005208DE00DC
:100168005108DD005008DC004908A0004D080A16B7
:100178008A11D7270A128A11831203132108E10072
:100188002008E0006008D000D101D201D301500856
:10019800D707510803110318013E0319D428D807BB
:1001A800520803110318013E0319DB28D907530825
:1001B80003110318013E0319E228DA076108D00089
:1001C800D101D201D3015008DC07510803110318EB
:1001D800013E0319F028DD07520803110318013EF8
:1001E8000319F728DE07530803110318013E031902
:1001F800FE28DF074A08A0004C080A168A11D727EC
:100208000A128A11831203132108E1002008E00072
:100218006008D000D101D201D3015008D707510896
:1002280003110318013E03191A29D80752080311AC
:100238000318013E03192129D9075308031103188C
:10024800013E03192829DA076108D000D101D2013B
:10025800D3015008DC07510803110318013E0319A4
:100268003629DD07520803110318013E03193D29F9
:10027800DE07530803110318013E03194429DF0759
:100288000830D0000310D70DD80DD90DDA0DD00BDA
:1002980046294908A0004C080A168A11D7270A12CD
:1002A8008A11831203132108E1002008E000600886
:1002B800D0006108D100D201D3015008D7075108F6
:1002C80003110318013E03196A29D80752080311BC
:1002D8000318013E03197129D9075308031103189C
:1002E800013E03197829DA074808A0004D080A16C4
:1002F8008A11D7270A128A11831203132108E100F1
:100308002008E0006008D0006108D100D201D301C4
:100318005008D707510803110318013E03199529FE
:10032800D807520803110318013E03199C29D9075D
:10033800530803110318013E0319A329DA070830EB
:10034800D0000310D70DD80DD90DDA0DD00BA52983
:100358004808A0004C080A168A11D7270A128A11E1
:10036800831203132108E1002008E0006008D00090
:100378006108D100D201D3015008D70751080311F1
:100388000318013E0319C929D80752080311031895
:10039800013E0319D029D907530803110318013E58
:1003A8000319D729DA074908A0004E080A168A1146
:1003B800D7270A128A11831203132108E1002008A3
:1003C800E0006008D0006108D100D201D3015008D4
:1003D800DC07510803110318013E0319F429DD074E
:1003E800520803110318013E0319FB29DE075308BD
:1003F80003110318013E0319022ADF074A08A00067
:100408004D080A168A11D7270A128A118312031374
:100418002108E1002008E0006008D0006108D10050
:10042800D201D3015008DC07510803110318013E1B
:1004380003191F2ADD07520803110318013E031987
:10044800262ADE07530803110318013E03192D2A33
:10045800DF074A08A0004E080A168A11D7270A1291
:100468008A11831203132108E1002008E0006008C4
:10047800D0006108D100D201D30108300310D00D9B
:10048800D10DD20DD30DFF3E031D422A5008DC07C3
:10049800510803110318013E0319532ADD075208B6
:1004A80003110318013E03195A2ADE0753080311E2
:1004B8000318013E0319612ADF075708D0005808BE
:1004C800D1005908D2005A08D30018300310D30CB1
:1004D800D20CD10CD00CFF3E031D6A2A5008DC0751
:1004E800510803110318013E03197B2ADD0752083E
:1004F80003110318013E0319822ADE07530803116A
:100508000318013E0319892ADF070830D0000310B9
:10051800D70DD80DD90DDA0DD00B8B2A5B085607ED
:10052800D000D101D10D5008823EE00051080318D7
:10053800013EFF3EE100BD2A0130D0000310DC0D72
:10054800DD0DDE0DDF0DD00BA22ADA1FAC2AAD2A95
:10055800AE2A5C140130D0000310D70DD80DD90D88
:10056800DA0DD00BB02AFF30E0070318E10AFF309C
:10057800E107DE1FC02AC12AA02AD601DA1FC52A30
:10058800C62AE22AFF305705D000FF305805D100AF
:10059800FF305905D2007F305A05D3005308520462
:1005A800510450040319D92ADA2ADD2AD601D60AB9
:1005B800E22A5C1CE02AE12AE22ADA2A5608031910
:1005C800E62AE72A182B0130DC070030031801302F
:1005D800DD07003003180130DE0700300318013052
:1005E800DF075F1CF82AF92A182B5C08D0005D0881
:1005F800D1005E08D2005F08D3000130D400530D4B
:10060800D30CD20CD10CD00CD40B032B5308DF0025
:100618005208DE005108DD005008DC000130E00718
:100628000318E10A0030E1076108803AFF008030D2
:100638007F02031D212BFF306002031C242B252B76
:10064800302B7F3083120313DF008030DE00003050
:10065800DD000030DC00612B831203136108803A4F
:10066800FF0080307F02031D3B2B0130600203181E
:100678003E2B3F2B4B2B003083120313DF0000303F
:10068800DE000030DD000030DC00D501612B831274
:1006980003136008DB00FF30DC05FF30DD057F3029
:1006A800DE050030DF055B1C5A2B5B2B5C2BDE174D
:1006B8005B08D0000310500CDF005508D00050082C
:1006C800DF045F08CB005E08CA005D08C9005C084B
:1006D800C80008008312031365088039EA0065081A
:1006E80083160313A000200783120313EC00E41FF2
:1006F8007E2B7F2B802B6C146C080319842B852B85
:10070800952B6C0A031D892B8A2B922B0030E50050
:100718000030E4000030E3000030E200E417E501B7
:100728009D2B0030E5000030E4000030E30000308D
:10073800E20069088039EB006B086A060319A52BEB
:10074800A62BA72B6A17690883160313A000200796
:1007580083120313EB00E81FB22BB32BB42B6B14DB
:100768006B080319B82BB92BC92B6B0A031DBD2BBA
:10077800BE2BC62B0030E9000030E8000030E7004F
:100788000030E600E817E901D12B0030E90000301D
:10079800E8000030E7000030E6006C086B02031840
:1007A800D62BD72B012C6A1FDA2BDB2BE32B8030BF
:1007B80083160313A000200883120313EA066C08AB
:1007C800ED006B08EC006D08EB006208ED006608B0
:1007D800E2006D08E6006308ED006708E3006D08B5
:1007E800E7006408ED006808E4006D08E8006508A3
:1007F800ED006908E5006D08E900ED016B08831656
:100808000313A000A1012108A300831203136C089D
:10081800831603132002A200031CA3032308803AB3
:10082800FF0080307F02031D1B2C1A302202031C9C
:100838001E2C1F2C622C83120313650864046304A6
:100848006204031D282C2A2C01302B2C0030ED00CB
:100858000030E5000030E4000030E3000030E20042
:100868006B08EC006A2C6D1C3A2C3B2C462C6D084E
:1008780083160313A0000310200C013883120313FE
:10088800ED00482C0310ED0C621C4B2C4C2C4D2C0D
:10089800ED17013083160313A00083120313650DAF
:1008A800E50CE40CE30CE20C83160313A00B512CAB
:1008B8000130A000200883120313EC0783120313EE
:1008C8006B086C02031C692C6A2C372C6A1B6D2C74
:1008D8006E2CC32C6C08031D722C732C7C2C0030DE
:1008E800E5000030E4000030E3000030E200572E5D
:1008F8006608E207670803110318013E0319852CEF
:10090800E307680803110318013E03198C2CE40758
:10091800690803110318013E0319932CE507651CA8
:10092800962C972CB72D6D1C9A2C9B2CA62C6D08F9
:1009380083160313A0000310200C0138831203133D
:10094800ED00A82C0310ED0C621CAB2CAC2CAD2CCC
:10095800ED17013083160313A00083120313650DEE
:10096800E50CE40CE30CE20C83160313A00BB12C8A
:100978000130A000200883120313EC07B72D650887
:10098800803AFF006908803A7F02031DD52C680869
:100998006402031DD52C67086302031DD52C660865
:1009A80062020318D82CD92C692DFF308316031343
:1009B800A000FF30A100FF30A200FF30A300831287
:1009C8000313660883160313A4008312031367082E
:1009D80083160313A50083120313680883160313F1
:1009E800A60083120313690883160313A700831252
:1009F8000313620883160313A40283120313630804
:100A0800031C630F082D0B2D83160313A5028312F5
:100A180003136408031C640F122D152D831603138A
:100A2800A602831203136508031C650F1C2D1F2DD6
:100A380083160313A70283120313831603132408D0
:100A4800A00725080318250F2A2D2B2DA1072608F6
:100A58000318260F302D312DA20727080318270A5F
:100A6800A307230883120313E50083160313220840
:100A780083120313E400831603132108831203135C
:100A8800E30083160313200883120313E200803067
:100A980083160313A000200883120313EA06ED0946
:100AA800ED0A6D08031D592D5A2D772D0130E207E7
:100AB800003003180130E307003003180130E40761
:100AC800003003180130E507772D6608E202670851
:100AD800031C670FE3026808031C680FE402690837
:100AE800031C690FE5026508640463046204031DBE
:100AF8007E2D7F2DB32D6D08031D832D842DB32DE1
:100B08000030E5000030E4000030E3000030E2008F
:100B1800572E013083160313A0000310831203130A
:100B2800E20DE30DE40DE50D83160313A00B912DE3
:100B380083120313ED1FA12DA22DA32D62146D1C8A
:100B4800A62DA72DAA2D0314ED0DAC2D0310ED0D28
:100B58006C080319B02DB12DB32D0130EC02E41F40
:100B6800B62DB72D8D2DEB01ED1FBB2DBC2DCA2D3C
:100B78006D087F390319C12DC22DC52DEB01EB0A74
:100B8800CA2D621CC82DC92DCA2DC22D6B08031988
:100B9800CE2DCF2D232E0130E2070030031801306F
:100BA800E307003003180130E40700300318013070
:100BB800E507651CE02DE12D232E6208831603133B
:100BC800A00083120313630883160313A100831282
:100BD8000313640883160313A20083120313650822
:100BE80083160313A3000130A400230DA30CA20C49
:100BF800A10CA00CA40BF92D230883120313E50004
:100C080083160313220883120313E40083160313C5
:100C1800210883120313E3008316031320088312A9
:100C28000313E2006C0A03191A2E1B2E232E01301F
:100C380083160313A000200883120313EC076C0A21
:100C48000319272E282E2D2E6C08031D2C2E2D2E31
:100C58003B2E0030E5000030E4000030E3000030B7
:100C6800E2006C08031D392E3A2E3B2EEA016C1C5B
:100C78003E2E3F2E412EE417492E7F308316031354
:100C8800A000200883120313E4056C0883160313DD
:100C9800A0000310200C83120313E500EA1F552E51
:100CA800562E572EE5170800FF30831603138700CA
:100CB80083120313071C612E622EAF2F0A128A15A6
:100CC8003F200A128A1183120313A401A40A0130D7
:100CD8000A128A15FD210A128A111D308312031384
:100CE800A5008030A6000A128A1526210A128A1148
:100CF8000F300A168A113A270A128A110A168A111F
:100D080047270A128A118312031307150D30831619
:100D18000313B800FB30B700B70B902EB80B902E1A
:100D28008312031307110D3083160313B800FB3029
:100D3800B700B70B9D2EB80B9D2E0A168A114727B0
:100D48000A128A110A168A114E270A128A11F50008
:100D58000D3083160313B800FB30B700B70BB22E63
:100D6800B80BB22E75080139F0007003031DBD2EB3
:100D7800BE2E072F7508F20083160313B001B00AC0
:100D8800FF30B1000030B200B300F430B4000130DD
:100D9800B50072080A128A158B240A128A11831662
:100DA80003133108C2003008C100643083120313F2
:100DB800A0000030A1008316031342088312031316
:100DC800A30083160313410883120313A2000A1217
:100DD8008A156C210A128A118312031320088316BC
:100DE8000313C6009C3083120313A0008316031359
:100DF80046080A168A1162270A128A1183160313F3
:100E08004107C500532F7008031D0B2F0C2F532FBC
:100E18007508F10083160313B001FE30B1000030ED
:100E2800B200B300F430B4000130B50071080A1202
:100E38008A158B240A128A11831603133108C000FD
:100E48003008BF00643083120313A0000030A100F3
:100E580083160313400883120313A3008316031396
:100E68003F0883120313A2000A128A156C210A1282
:100E78008A1183120313200883160313C4009C30BD
:100E880083120313A0008316031344080A168A1159
:100E980062270A128A11831603133F07C3000B3017
:100EA80083120313AE00831603134608B700B80174
:100EB800370883120313AF0083160313380883120D
:100EC8000313B000831603134508B900BA013908A3
:100ED80083120313B100831603133A088312031312
:100EE800B200831603134408BB00BC013B088312FD
:100EF8000313B300831603133C0883120313B400CF
:100F0800831603134308BD00BE013D088312031373
:100F1800B500831603133E0883120313B600CC30C2
:100F28000A128A1551250A128A1183120313A40181
:100F3800A40A02300A128A15FD210A128A11CC303D
:100F480083120313A5000030A6000A128A15262171
:100F58000A128A117C2E0718B22FB32FDB2F0A1220
:100F68008A15E4200A128A117308031DBC2FBD2FAD
:100F7800C62F00300A168A11B3270A128A11F30104
:100F8800F30AD22F7303031DCA2FCB2FD22F0130A0
:100F98000A168A11B3270A128A11F3017208FE3958
:100FA80083160313C80071080138C700B82F0A1246
:100FB8008A110C2883120313A000201CE42FE52FAC
:100FC800E72F0816E82F0812A01CEB2FEC2FEE2FA6
:100FD8008816EF2F8812201DF22FF32FF52F0817F0
:100FE800F62F0813A01DF92FFA2FFC2F8817FD2FB5
:040FF8008813080052
:10100000FF1B0A2883137F1883170008840A03191B
:10101000FF0A080008308A000408840A82070034A6
:10102000013400340A34003464340034E8340334C6
:101030001034273420342034253464342E342534BD
:1010400064342034203420342034253464342E3465
:1010500025346434203400342034203450344F3468
:1010600054343134203420342034203450344F343C
:0610700054343234003458
:10107E008316031788018316031385018312031346
:10108E0085018316031386018312031386018316CB
:10109E00031388018312031388011130831603137F
:1010AE00870002300A128A15B2210A128A1583129B
:1010BE000313A001A101A20120300A168A1195275F
:1010CE000A128A150A128A15E5220A128A150800D2
:1010DE0083120313A40024080F39A2002408F03948
:1010EE00A30008152308A10004300310A10CFF3E35
:1010FE00031D7C2821080A128A11DE270A128A157E
:10110E00831203138815193083120313A100A10B48
:10111E008E28912883120313881122080A128A112D
:10112E00DE270A128A1583120313881519308312CB
:10113E000313A100A10BA128A42883120313881165
:10114E00080083120313280829040319AF28B028B6
:10115E00DF28AD01AD0ABE2801300310A80DA90D80
:10116E00FF3E031DB4280130AC002C08AD07A91FAB
:10117E00C128C228B32829082B02031DC828280815
:10118E002A02031CCB28CC28D2282808AA02290818
:10119E00031CAB03AB0201300310A90CA80CFF3EDD
:1011AE00031DD3280130AD02031DDE28DF28C2281F
:1011BE002B08A9002A08A800080083160317890126
:1011CE0003308800203083160313850086018312B6
:1011DE0003138601831603138801831203138801F8
:1011EE00193083160313870002300A128A15B221B2
:1011FE000A128A1583120313A001A10101300A12EB
:10120E008A1549220A128A15831203130C138316A8
:10121E0003130C170B178B17831203138C118316E2
:10122E0003138C1583120313A001A1014030A200F9
:10123E0024300A168A1195270A128A15080083127D
:10124E000313AA01AB014F292A082507A800260877
:10125E00A7000318A70AAA1F3529A7038312031391
:10126E002708A9002908FF00280884000A128A15F9
:10127E0000200A128A150A128A156F200A128A1580
:10128E00013083120313AA070318AB0A0030AB0711
:10129E002A082507A8002608A7000318A70AAA1FD0
:1012AE005929A703831203132708A9002908FF0051
:1012BE00280884000A128A1500200A128A15003A9C
:1012CE00031D6A296B292B29080083120313A6011B
:1012DE00A70120082104031975297629AD29A50136
:1012EE00A50A842901300310A00DA10DFF3E031D98
:1012FE007A290130A4002408A507A11F872988296F
:10130E00792901300310A60DA70DFF3E031D892973
:10131E0021082302031D952920082202031C982967
:10132E009929A0292008A2022108031CA303A302C5
:10133E00261401300310A10CA00CFF3E031DA129A1
:10134E000130A502031DAC29AD2988292708A1006B
:10135E002608A000080083120313A20083160313AD
:10136E000F14E129831603130F088F3940388F00AD
:10137E00FC29831603130F088F3950388F00FC2970
:10138E00831603130F088F3960388F00FC297030D5
:10139E00831603138F04FC29831603130F088F394A
:1013AE0030388F00FC29831603130F088F396038ED
:1013BE008F00FC29831203132208A000A10121082B
:1013CE00003A0319EB29DA292008003A0319B92942
:1013DE00013A0319C029033A0319C729013A03191F
:1013EE00CE29073A0319D329DA29080083120313E9
:1013FE00A6002603031D042A052A242A24087F3E5C
:10140E00A9002908A50004300310A50CFF3E031DFA
:10141E000B2A2508A70029080F39A80027080A1645
:10142E008A1179270A128A158312031328080A16BD
:10143E008A1179270A128A15482A02302606031DB8
:10144E00292A2A2A482A2408BF3EA9002908A500CD
:10145E0004300310A50CFF3E031D302A2508A700FB
:10146E0029080F39A80027080A168A1179270A12A7
:10147E008A158312031328080A168A1179270A126D
:10148E008A15080083120313A4005D2A3F309F05BE
:10149E00732A1F083F3940389F00732A1F083F39AF
:1014AE0080389F00732AC0309F04732A2408A2003C
:1014BE00A3012308003A0319652A732A2208003A69
:1014CE0003194D2A013A0319502A033A0319552AD2
:1014DE00013A03195A2A732A200C83160313031C8C
:1014EE001F1203181F1683120313210C83160313E6
:1014FE00031C9F1203189F16C330831203139F05FC
:10150E00831603139F13831203131F140C308312BD
:10151E000313A200A20B912A0000080083120313EA
:10152E0007189A2A9B2ADE2A8C1D9E2A9F2AC02AD9
:10153E007403031DA32AA42AAE2A83160313480894
:10154E000A168A1134270A128A15F401BD2A740864
:10155E00031DB22AB32ABD2A8316031347080A169F
:10156E008A1134270A128A15F401F40A831203131E
:10157E008C110C1FC32AC42ADE2A7308031DC82A25
:10158E00C92AD12A0A168A1157270A128A157608ED
:10159E00F200DE2A7303031DD52AD62ADE2A0A1686
:1015AE008A1157270A128A157608F100DE2A7B085F
:1015BE008A007A0E8300FE0E7E0E090000300A129B
:1015CE008A11DE270A128A15343083120313A500FE
:1015DE00F130A400A40BF12AA50BF12A03300A1650
:1015EE008A1179270A128A150D3083120313A5006A
:1015FE00FB30A400A40B012BA50B012B03300A1604
:10160E008A1179270A128A15063083120313A40051
:10161E00A40B0F2B000003300A168A1179270A1229
:10162E008A1502300A168A1179270A128A15023093
:10163E000A168A1179270A128A1508300A168A1193
:10164E0079270A128A1500300A168A1179270A128A
:10165E008A150C300A168A1179270A128A1500305B
:10166E000A168A1179270A128A1506300A168A1165
:10167E0079270A128A1508000310831603132A0D00
:10168E002B0D83120313EF006F08031D4F2B502BEE
:10169E005B2B003083160313AB000030AA00003022
:1016AE00A9000030A800D02B831603132808AC0025
:1016BE002908AD002A08AE002B08AF001F3003101A
:1016CE00AF0CAE0CAD0CAC0CFF3E031D662B2C0804
:1016DE0083120313EE0083160313AA17FF30A80517
:1016EE00FF30A905FF30AA050030AB0596308312F6
:1016FE000313EF02EF1F842B852BA32B6F08803A69
:10170E00973E03188B2B8C2B8D2B502B01300310F7
:10171E0083160313AB0CAA0CA90CA80CFF3E031DD9
:10172E008E2B0130AC002C0883120313EF07031D20
:10173E00A12BA22B8D2BBE2B20306F02031CA82BAE
:10174E00A92BB92B502B013083160313AC000310B9
:10175E00A80DA90DAA0DAB0DAC0BAE2B013083124B
:10176E000313EF026F08031DBD2BBE2BAA2B6E08B1
:10177E000319C22BC32BD02B83160313A809A90957
:10178E00AA09AB09A80A0319A90A0319AA0A031977
:10179E00AB0A080083120313A80028080319D82BDC
:1017AE00D92BED2BA31FDC2BDD2BED2B2009AA0053
:1017BE002109AB002209AC002309AD00AA0A0319C6
:1017CE00AB0A0319AC0A0319AD0AF52B2308AD00B9
:1017DE002208AC002108AB002008AA00230822042E
:1017EE0021042004031DFC2BFD2B062C0030A3002E
:1017FE000030A2000030A1000030A0008A2C9630EC
:10180E00A900162C0130A4002408A90701300310EA
:10181E00AD0CAC0CAB0CAA0CFF3E031D0E2CFE3017
:10182E002D05031D1B2C1C2C092C382C0130A4005B
:10183E002408A9070130AA07003003180130AB07AE
:10184E00003003180130AC07003003180130AD072B
:10185E0001300310AD0CAC0CAB0CAA0CFF3E031DFB
:10186E00302CFF302D05031D3D2C3E2C1D2C4A2CFB
:10187E000130A9020130A4000310AA0DAB0DAC0D6E
:10188E00AD0DA40B432CAC1B4D2C4E2C542C023006
:10189E0029020318532C542C3F2C2918572C582C42
:1018AE00602CFF30AA05FF30AB057F30AC05FF3052
:1018BE00AD050310A90C2908A400A501A601A701D6
:1018CE0018300310A40DA50DA60DA70DFF3E031D88
:1018DE00682C2408AA042508AB042608AC042708A3
:1018EE00AD04280803197C2C7D2C822CA31F802C80
:1018FE00812C822CAD172D08A3002C08A2002B08DA
:10190E00A1002A08A000080083160313B6003208AF
:10191E0083120313A00083160313330883120313D9
:10192E00A100A201A30100300A128A15D1230A12C6
:10193E008A15831203132308E9002208E800210800
:10194E00E7002008E60083160313320834028312E0
:10195E000313A000831603133308031C330A350246
:10196E0083120313A100A201A30100300A128A15EB
:10197E00D1230A128A15831203132308B5002208F5
:10198E00B4002108B3002008B200831603133008F8
:10199E00310283120313A000A101031CA103A201B3
:1019AE00A11BA2032208A30001300A128A15D1231B
:1019BE000A128A15831203132308B1002208B000FD
:1019CE002108AF002008AE000A128A152D260A1231
:1019DE008A15831203133108CF003008CE002F086A
:1019EE00CD002E08CC008316031330083602831266
:1019FE000313A000A101031CA103A201A11BA203BA
:101A0E002208A30001300A128A15D1230A128A1560
:101A1E00831203132308CB002208CA002108C90031
:101A2E002008C8000A128A1129200A128A15831268
:101A3E0003134B08E5004A08E4004908E300480890
:101A4E00E2000A128A116E230A128A1583120313F8
:101A5E00650883160313AB00831203136408831601
:101A6E000313AA0083120313630883160313A9003A
:101A7E0083120313620883160313A8000A128A1531
:101A8E0043230A128A15831603132908B100280866
:101A9E00B000080083120313BF002F30BA00182EB7
:101AAE002530400603195C2D5D2D672D3F088400FF
:101ABE004008831380000130B7003708BF07182E87
:101ACE00BB010130AE07FF302E0784000A128A15C3
:101ADE000A200A128A15C000B700B8013808003A69
:101AEE0003197A2D182E3708003A0319282E643A56
:101AFE000319852D0D3A0319852D182E3A088400E9
:101B0E0083130008BD00840A0008BE000230B7002F
:101B1E003708BA07BE1F942D952D9E2D0330B700A2
:101B2E003708BB04BD09BE09BD0A0319BE0AC001B0
:101B3E00C00A4008B7003707013E84000A128A1512
:101B4E000A200A128A15B8000A128A150A200A12E9
:101B5E008A15B90039083E02031DB72D38083D021B
:101B6E000318BA2DBB2DBC2DC62D0130B70037087A
:101B7E00C00705304006031DC52DC62DA02D3B0800
:101B8E0003390319CB2DCC2DD52D3F0884002D30D4
:101B9E00831380000130B7003708BF074008BC0030
:101BAE000F2E0A30A8000030A9003C08B7003707F6
:101BBE00013E84000A128A150A200A128A15A00014
:101BCE000A128A150A200A128A15A1003E08A300DD
:101BDE003D08A2000A128A156C210A128A15831278
:101BEE0003132108AB002008AA000A128A15A820A8
:101BFE000A128A15831203132808303EC0003F08CC
:101C0E0084004008831380000130B7003708BF07F7
:101C1E00FF30B7003708BC073C0A031D172E182EDD
:101C2E00D82D0130AE07FF302E0784000A128A1518
:101C3E000A200A128A15C0004008031D272E282EDE
:101C4E00572D3F088400831380010800831203136D
:101C5E0035088039BF003508B6003607C600B41FF8
:101C6E00392E3A2E3B2E4614460803193F2E402E8F
:101C7E00502E460A031D442E452E4D2E0030B50023
:101C8E000030B4000030B3000030B200B417B5011C
:101C9E00582E0030B5000030B4000030B3000030D4
:101CAE00B20031088039B6003608BF063108B600DA
:101CBE003607C700B01F642E652E662E47144708E0
:101CCE0003196A2E6B2E7B2E470A031D6F2E702E64
:101CDE00782E0030B1000030B0000030AF00003080
:101CEE00AE00B017B101832E0030B1000030B0004D
:101CFE000030AF000030AE00310830042F042E0447
:101D0E00031D8A2E8B2EA42E0030B5000030B40099
:101D1E000030B3000030B2008030B4047F30B50420
:101D2E003F08B6003608B5043508B1003408B000D7
:101D3E003308AF003208AE00FF2F4608031DA82E51
:101D4E00A92EB22E0030B1000030B0000030AF002E
:101D5E000030AE00FF2F4608B600B7013708B900B5
:101D6E0047083602B800031CB90338087F3EC0008E
:101D7E0039080318013E003EC1003508BE00340884
:101D8E00BD003308BC003208BB000030B500003087
:101D9E00B4000030B3000030B2000030C500003097
:101DAE00C4000030C3000030C200C701282F47080E
:101DBE000319E22EE32E032F0130B6000310BB0DE4
:101DCE00BC0DBD0DBE0DB60BE52E0130B6000310D9
:101DDE00B20DB30DB40DB50DB60BEE2EC51FF82E0C
:101DEE00F92EFA2E32140130B6000310C20DC30DB7
:101DFE00C40DC50DB60BFC2E31083E02031D112F6E
:101E0E0030083D02031D112F2F083C02031D112F18
:101E1E002E083B02031C142F152F242F45172E08B6
:101E2E00BB022F08031C2F0FBC023008031C300FFF
:101E3E00BD023108031C310FBE020130B600360858
:101E4E00C7071A304702031C2D2F2E2FDE2E3E08F9
:101E5E003D043C043B040319352F362F552F4214F5
:101E6E00552F0130B6000310B20DB30DB40DB50DE4
:101E7E00B60B3A2FC51F442F452F462F3214013073
:101E8E00B6000310C20DC30DC40DC50DB60B482F01
:101E9E00FF30C0070318C10AFF30C107B41F582F07
:101EAE00592F382FC701C51F5D2F5E2F7A2FFF3098
:101EBE004205B600FF304305B700FF304405B800B9
:101ECE007F304505B9003908380437043604031944
:101EDE00712F722F752FC701C70A7A2F321C782FD8
:101EEE00792F7A2F722F470803197E2F7F2FB02F4D
:101EFE000130B207003003180130B3070030031869
:101F0E000130B407003003180130B507351C902F8F
:101F1E00912FB02F3208B6003308B7003408B8003E
:101F2E003508B9000130BA00390DB90CB80CB70C30
:101F3E00B60CBA0B9B2F3908B5003808B400370819
:101F4E00B3003608B2000130C0070318C10A0030D2
:101F5E00C1074108803AFF0080307F02031DB92F70
:101F6E00FF304002031CBC2FBD2FCB2FFF3083123E
:101F7E000313C0000030C1000030B5000030B400C3
:101F8E000030B3000030B200831203134108803AD0
:101F9E00FF0080307F02031DD62F01304002031850
:101FAE00D92FDA2FE72F83120313C001C10100309E
:101FBE00B5000030B4000030B3000030B200BF01F5
:101FCE00831203134008C600461CEE2FEF2FF12F8D
:101FDE00B417F52F7F30B6003608B4054608B600A4
:101FEE000310360CB5003F08B6003608B5049B2E1C
:021FFE000800D9
:102E6800F6007608831203139300080083120313F5
:102E7800A00020089300080083160313141C452F94
:102E8800462F402F080083160313141C4C2F4D2F78
:102E9800472F08000A168A1140270A168A1183123A
:102EA800031313080800831203130C131E08F800F9
:102EB800F9017808F6007908F7000800831203136F
:102EC800A300A201231C692F6A2F6E2F2008A100DE
:102ED8002108A2070310A00D0310A30C2308031D4B
:102EE800762F772F662F2208080083120313A3007A
:102EF800081123080A128A11DE270A168A1183127A
:102F0800031388150B3083120313A2006130A1004C
:102F1800A10B8C2FA20B8C2F912F831203138811D6
:102F2800080083120313A300831603138712831266
:102F38000313231DA02FA12FA72F220883160313E5
:102F480094008715AD2F20082204831603139400DC
:102F580087118312031323082104940008008312A5
:102F68000313A1000E3021020318BB2FBC2FC62F5C
:102F78002108A000A00DA00D1F082006C3392006B7
:102F88009F00C82FC3309F050C3083120313A00085
:102F9800A00BCC2F0000831203139F149F18D52F6A
:102FA800D62FD22F080083120313A800A401A5016D
:102FB8002008A200A3012208A6002308A700281CB5
:102FC800E62FE72FED2F2608A4070318A50A2708E0
:102FD800A50701300310A60DA70DFF3E031DEE2F18
:102FE8000310A80C2808031DFA2FFB2FE32F250830
:082FF800A1002408A00008005C
:08400000FF3FFF3FFF3FFF3FC0
:04400E00D420FF3F7C
:00000001FF
